Archive member included because of file (symbol)

C:\Users\Fredc.FCARLIN\Documents\lpcxpresso\workspace\CMSISv2p00_LPC17xx\Debug\libCMSISv2p00_LPC17xx.a(system_LPC17xx.o)
                              ./src/cr_startup_lpc175x_6x.o (SystemInit)
c:/nxp/lpcxpresso_6.1.4_194/lpcxpresso/tools/bin/../lib/gcc/arm-none-eabi/4.6.2/armv7-m\libgcc.a(_aeabi_uldivmod.o)
                              C:\Users\Fredc.FCARLIN\Documents\lpcxpresso\workspace\CMSISv2p00_LPC17xx\Debug\libCMSISv2p00_LPC17xx.a(system_LPC17xx.o) (__aeabi_uldivmod)
c:/nxp/lpcxpresso_6.1.4_194/lpcxpresso/tools/bin/../lib/gcc/arm-none-eabi/4.6.2/armv7-m\libgcc.a(bpabi.o)
                              c:/nxp/lpcxpresso_6.1.4_194/lpcxpresso/tools/bin/../lib/gcc/arm-none-eabi/4.6.2/armv7-m\libgcc.a(_aeabi_uldivmod.o) (__gnu_uldivmod_helper)
c:/nxp/lpcxpresso_6.1.4_194/lpcxpresso/tools/bin/../lib/gcc/arm-none-eabi/4.6.2/armv7-m\libgcc.a(_dvmd_tls.o)
                              c:/nxp/lpcxpresso_6.1.4_194/lpcxpresso/tools/bin/../lib/gcc/arm-none-eabi/4.6.2/armv7-m\libgcc.a(_aeabi_uldivmod.o) (__aeabi_ldiv0)
c:/nxp/lpcxpresso_6.1.4_194/lpcxpresso/tools/bin/../lib/gcc/arm-none-eabi/4.6.2/armv7-m\libgcc.a(_divdi3.o)
                              c:/nxp/lpcxpresso_6.1.4_194/lpcxpresso/tools/bin/../lib/gcc/arm-none-eabi/4.6.2/armv7-m\libgcc.a(bpabi.o) (__divdi3)
c:/nxp/lpcxpresso_6.1.4_194/lpcxpresso/tools/bin/../lib/gcc/arm-none-eabi/4.6.2/armv7-m\libgcc.a(_udivdi3.o)
                              c:/nxp/lpcxpresso_6.1.4_194/lpcxpresso/tools/bin/../lib/gcc/arm-none-eabi/4.6.2/armv7-m\libgcc.a(bpabi.o) (__udivdi3)
c:/nxp/lpcxpresso_6.1.4_194/lpcxpresso/tools/bin/../lib/gcc/arm-none-eabi/4.6.2/../../../../arm-none-eabi/lib/armv7-m\libc.a(lib_a-init.o)
                              ./src/cr_startup_lpc175x_6x.o (__libc_init_array)
c:/nxp/lpcxpresso_6.1.4_194/lpcxpresso/tools/bin/../lib/gcc/arm-none-eabi/4.6.2/../../../../arm-none-eabi/lib/armv7-m\libc.a(lib_a-malloc.o)
                              ./src/cr_cpp_config.o (malloc)
c:/nxp/lpcxpresso_6.1.4_194/lpcxpresso/tools/bin/../lib/gcc/arm-none-eabi/4.6.2/../../../../arm-none-eabi/lib/armv7-m\libc.a(lib_a-mallocr.o)
                              c:/nxp/lpcxpresso_6.1.4_194/lpcxpresso/tools/bin/../lib/gcc/arm-none-eabi/4.6.2/../../../../arm-none-eabi/lib/armv7-m\libc.a(lib_a-malloc.o) (_malloc_r)
c:/nxp/lpcxpresso_6.1.4_194/lpcxpresso/tools/bin/../lib/gcc/arm-none-eabi/4.6.2/../../../../arm-none-eabi/lib/armv7-m\libc.a(lib_a-mlock.o)
                              c:/nxp/lpcxpresso_6.1.4_194/lpcxpresso/tools/bin/../lib/gcc/arm-none-eabi/4.6.2/../../../../arm-none-eabi/lib/armv7-m\libc.a(lib_a-mallocr.o) (__malloc_lock)
c:/nxp/lpcxpresso_6.1.4_194/lpcxpresso/tools/bin/../lib/gcc/arm-none-eabi/4.6.2/../../../../arm-none-eabi/lib/armv7-m\libc.a(lib_a-sbrkr.o)
                              c:/nxp/lpcxpresso_6.1.4_194/lpcxpresso/tools/bin/../lib/gcc/arm-none-eabi/4.6.2/../../../../arm-none-eabi/lib/armv7-m\libc.a(lib_a-mallocr.o) (_sbrk_r)
c:/nxp/lpcxpresso_6.1.4_194/lpcxpresso/tools/bin/../lib/gcc/arm-none-eabi/4.6.2/../../../../arm-none-eabi/lib/armv7-m\libc.a(lib_a-freer.o)
                              c:/nxp/lpcxpresso_6.1.4_194/lpcxpresso/tools/bin/../lib/gcc/arm-none-eabi/4.6.2/../../../../arm-none-eabi/lib/armv7-m\libc.a(lib_a-malloc.o) (_free_r)
c:/nxp/lpcxpresso_6.1.4_194/lpcxpresso/tools/bin/../lib/gcc/arm-none-eabi/4.6.2/../../../../arm-none-eabi/lib/armv7-m\libc.a(lib_a-impure.o)
                              c:/nxp/lpcxpresso_6.1.4_194/lpcxpresso/tools/bin/../lib/gcc/arm-none-eabi/4.6.2/../../../../arm-none-eabi/lib/armv7-m\libc.a(lib_a-malloc.o) (_impure_ptr)
c:/nxp/lpcxpresso_6.1.4_194/lpcxpresso/tools/bin/../lib/gcc/arm-none-eabi/4.6.2/../../../../arm-none-eabi/lib/armv7-m\libc.a(lib_a-reent.o)
                              c:/nxp/lpcxpresso_6.1.4_194/lpcxpresso/tools/bin/../lib/gcc/arm-none-eabi/4.6.2/../../../../arm-none-eabi/lib/armv7-m\libc.a(lib_a-sbrkr.o) (errno)

Allocating common symbols
Common symbol       size              file

errno               0x4               c:/nxp/lpcxpresso_6.1.4_194/lpcxpresso/tools/bin/../lib/gcc/arm-none-eabi/4.6.2/../../../../arm-none-eabi/lib/armv7-m\libc.a(lib_a-reent.o)

Discarded input sections

 .text          0x00000000        0x0 ./src/LCD_160x128.o
 .data          0x00000000        0x0 ./src/LCD_160x128.o
 .bss           0x00000000        0x0 ./src/LCD_160x128.o
 .bss.comm_char
                0x00000000       0xc0 ./src/LCD_160x128.o
 .bss.disp_attrib
                0x00000000        0x1 ./src/LCD_160x128.o
 .bss.scr_chr   0x00000000        0x4 ./src/LCD_160x128.o
 .bss.scr_att   0x00000000        0x4 ./src/LCD_160x128.o
 .bss.d_bcc     0x00000000        0x4 ./src/LCD_160x128.o
 .bss.d_comm_com
                0x00000000        0x4 ./src/LCD_160x128.o
 .text._Z18update_display_lcdh
                0x00000000       0x14 ./src/LCD_160x128.o
 .text._Z21update_display_eefailv
                0x00000000        0xc ./src/LCD_160x128.o
 .text._Z13send_display2i
                0x00000000      0x1ec ./src/LCD_160x128.o
Memory Configuration

Name             Origin             Length             Attributes
MFlash512        0x00000000         0x00080000         xr
RamLoc32         0x10000000         0x00008000         xrw
RamAHB32         0x2007c000         0x00008000         xrw
*default*        0x00000000         0xffffffff

Linker script and memory map

LOAD ./src/LCD_160x128.o
LOAD ./src/PCBA_2100.o
LOAD ./src/Uart.o
LOAD ./src/Utilitas.o
LOAD ./src/cr_cpp_config.o
LOAD ./src/cr_startup_lpc175x_6x.o
LOAD ./src/crp.o
LOAD ./src/main.o
LOAD C:\Users\Fredc.FCARLIN\Documents\lpcxpresso\workspace\CMSISv2p00_LPC17xx\Debug\libCMSISv2p00_LPC17xx.a
START GROUP
LOAD c:/nxp/lpcxpresso_6.1.4_194/lpcxpresso/tools/bin/../lib/gcc/arm-none-eabi/4.6.2/armv7-m\libgcc.a
LOAD c:/nxp/lpcxpresso_6.1.4_194/lpcxpresso/tools/bin/../lib/gcc/arm-none-eabi/4.6.2/../../../../arm-none-eabi/lib/armv7-m\libc.a
LOAD c:/nxp/lpcxpresso_6.1.4_194/lpcxpresso/tools/bin/../lib/gcc/arm-none-eabi/4.6.2/../../../../arm-none-eabi/lib/armv7-m\libstdc++.a
LOAD c:/nxp/lpcxpresso_6.1.4_194/lpcxpresso/tools/bin/../lib/gcc/arm-none-eabi/4.6.2/../../../../arm-none-eabi/lib/armv7-m\libm.a
LOAD c:/nxp/lpcxpresso_6.1.4_194/lpcxpresso/tools/bin/../lib/gcc/arm-none-eabi/4.6.2/armv7-m\crti.o
LOAD c:/nxp/lpcxpresso_6.1.4_194/lpcxpresso/tools/bin/../lib/gcc/arm-none-eabi/4.6.2/armv7-m\crtn.o
LOAD c:/nxp/lpcxpresso_6.1.4_194/lpcxpresso/tools/bin/../lib/gcc/arm-none-eabi/4.6.2/armv7-m\crtbegin.o
LOAD c:/nxp/lpcxpresso_6.1.4_194/lpcxpresso/tools/bin/../lib/gcc/arm-none-eabi/4.6.2/armv7-m\crtend.o
END GROUP
                0x00080000                __top_MFlash512 = 0x80000
                0x10008000                __top_RamLoc32 = 0x10008000
                0x20084000                __top_RamAHB32 = 0x20084000

.text           0x00000000     0x16e0
 FILL mask 0xff
                0x00000000                __vectors_start__ = ABSOLUTE (.)
 *(.isr_vector)
 .isr_vector    0x00000000       0xcc ./src/cr_startup_lpc175x_6x.o
                0x00000000                g_pfnVectors
                0x000000cc                . = ALIGN (0x4)
                0x000000cc                __section_table_start = .
                0x000000cc                __data_section_table = .
                0x000000cc        0x4 LONG 0x16e0 LOADADDR (.data)
                0x000000d0        0x4 LONG 0x10000000 ADDR (.data)
                0x000000d4        0x4 LONG 0x0 SIZEOF (.data)
                0x000000d8        0x4 LONG 0x16e0 LOADADDR (.data_RAM2)
                0x000000dc        0x4 LONG 0x2007c000 ADDR (.data_RAM2)
                0x000000e0        0x4 LONG 0x0 SIZEOF (.data_RAM2)
                0x000000e4                __data_section_table_end = .
                0x000000e4                __bss_section_table = .
                0x000000e4        0x4 LONG 0x10000000 ADDR (.bss)
                0x000000e8        0x4 LONG 0x1a4 SIZEOF (.bss)
                0x000000ec        0x4 LONG 0x2007c000 ADDR (.bss_RAM2)
                0x000000f0        0x4 LONG 0x0 SIZEOF (.bss_RAM2)
                0x000000f4                __bss_section_table_end = .
                0x000000f4                __section_table_end = .
 *(.after_vectors*)
 .after_vectors
                0x000000f4       0x7c ./src/cr_startup_lpc175x_6x.o
                0x000000f4                NMI_Handler
                0x000000f6                HardFault_Handler
                0x000000f8                MemManage_Handler
                0x000000fa                BusFault_Handler
                0x000000fc                UsageFault_Handler
                0x000000fe                SVC_Handler
                0x00000100                DebugMon_Handler
                0x00000102                PendSV_Handler
                0x00000106                data_init(unsigned int, unsigned int, unsigned int)
                0x00000118                bss_init(unsigned int, unsigned int)
                0x00000128                ResetISR
                0x0000016c                UART1_IRQHandler
                0x0000016c                EINT3_IRQHandler
                0x0000016c                CANActivity_IRQHandler
                0x0000016c                TIMER3_IRQHandler
                0x0000016c                UART0_IRQHandler
                0x0000016c                EINT2_IRQHandler
                0x0000016c                IntDefaultHandler
                0x0000016c                PLL0_IRQHandler
                0x0000016c                CAN_IRQHandler
                0x0000016c                PLL1_IRQHandler
                0x0000016c                I2C1_IRQHandler
                0x0000016c                I2S_IRQHandler
                0x0000016c                I2C2_IRQHandler
                0x0000016c                RTC_IRQHandler
                0x0000016c                TIMER0_IRQHandler
                0x0000016c                SPI_IRQHandler
                0x0000016c                EINT1_IRQHandler
                0x0000016c                TIMER1_IRQHandler
                0x0000016c                UART2_IRQHandler
                0x0000016c                ADC_IRQHandler
                0x0000016c                SSP1_IRQHandler
                0x0000016c                PWM1_IRQHandler
                0x0000016c                USB_IRQHandler
                0x0000016c                BOD_IRQHandler
                0x0000016c                USBActivity_IRQHandler
                0x0000016c                I2C0_IRQHandler
                0x0000016c                WDT_IRQHandler
                0x0000016c                RIT_IRQHandler
                0x0000016c                QEI_IRQHandler
                0x0000016c                EINT0_IRQHandler
                0x0000016c                SSP0_IRQHandler
                0x0000016c                DMA_IRQHandler
                0x0000016c                TIMER2_IRQHandler
                0x0000016c                UART3_IRQHandler
                0x0000016c                MCPWM_IRQHandler
                0x0000016c                ENET_IRQHandler
                0x000002fc                . = 0x2fc
 *fill*         0x00000170      0x18c ff
                0x000002fc                PROVIDE (__CRP_WORD_START__, .)
 *(.crp)
 .crp           0x000002fc        0x4 ./src/crp.o
                0x000002fc                CRP_WORD
                0x00000300                PROVIDE (__CRP_WORD_END__, .)
                0x00000001                ASSERT (! ((__CRP_WORD_START__ == __CRP_WORD_END__)), Linker CRP Enabled, but no CRP_WORD provided within application)
 *(.text*)
 .text._Z8strnset2Pcih
                0x00000300       0x58 ./src/LCD_160x128.o
                0x00000300                strnset2(char*, int, unsigned char)
 .text._ZN11LCD_Display5clearEv
                0x00000358       0x88 ./src/LCD_160x128.o
                0x00000358                LCD_Display::clear()
 .text._ZN11LCD_Display15read_lcd_statusEv
                0x000003e0       0x1c ./src/LCD_160x128.o
                0x000003e0                LCD_Display::read_lcd_status()
 .text._ZN11LCD_Display14write_lcd_dataEh
                0x000003fc       0x40 ./src/LCD_160x128.o
                0x000003fc                LCD_Display::write_lcd_data(unsigned char)
 .text._ZN11LCD_Display14write_lcd_cmndEh
                0x0000043c       0x40 ./src/LCD_160x128.o
                0x0000043c                LCD_Display::write_lcd_cmnd(unsigned char)
 .text._ZN11LCD_Display8lcd_initEv
                0x0000047c       0x64 ./src/LCD_160x128.o
                0x0000047c                LCD_Display::lcd_init()
 .text._ZN11LCD_Display9write_strEPcS0_h
                0x000004e0      0x1a8 ./src/LCD_160x128.o
                0x000004e0                LCD_Display::write_str(char*, char*, unsigned char)
 .text._ZN11LCD_Display11set_cur_posEhh
                0x00000688       0x54 ./src/LCD_160x128.o
                0x00000688                LCD_Display::set_cur_pos(unsigned char, unsigned char)
 .text._ZN11LCD_Display9hdw_clearEv
                0x000006dc       0xb8 ./src/LCD_160x128.o
                0x000006dc                LCD_Display::hdw_clear()
 .text.NVIC_SetPriority
                0x00000794       0x5c ./src/PCBA_2100.o
 .text.SysTick_Config
                0x000007f0       0x64 ./src/PCBA_2100.o
 .text._ZN9PCBA_21007IO_InitEv
                0x00000854       0x28 ./src/PCBA_2100.o
                0x00000854                PCBA_2100::IO_Init()
 .text._ZN9PCBA_21008LED_DS22Eb
                0x0000087c       0x38 ./src/PCBA_2100.o
                0x0000087c                PCBA_2100::LED_DS22(bool)
 .text.SysTick_Handler
                0x000008b4       0x24 ./src/PCBA_2100.o
                0x000008b4                SysTick_Handler
 .text._ZN9PCBA_210014Get_Timer_TickEv
                0x000008d8       0x18 ./src/PCBA_2100.o
                0x000008d8                PCBA_2100::Get_Timer_Tick()
 .text._ZN9PCBA_210025LCDdriver_ConfigGPIOtoLCDEv
                0x000008f0       0xc0 ./src/PCBA_2100.o
                0x000008f0                PCBA_2100::LCDdriver_ConfigGPIOtoLCD()
 .text._ZN9PCBA_21008qk_delayEi
                0x000009b0       0x38 ./src/PCBA_2100.o
                0x000009b0                PCBA_2100::qk_delay(int)
 .text._ZN9PCBA_210014LCD_ReadStatusEv
                0x000009e8       0xa4 ./src/PCBA_2100.o
                0x000009e8                PCBA_2100::LCD_ReadStatus()
 .text._ZN9PCBA_210012LCD_WriteComEh
                0x00000a8c       0x90 ./src/PCBA_2100.o
                0x00000a8c                PCBA_2100::LCD_WriteCom(unsigned char)
 .text._ZN9PCBA_210013LCD_WriteDataEh
                0x00000b1c       0x94 ./src/PCBA_2100.o
                0x00000b1c                PCBA_2100::LCD_WriteData(unsigned char)
 .text._ZN8Utilitas4initEv
                0x00000bb0       0x14 ./src/Utilitas.o
                0x00000bb0                Utilitas::init()
 .text.main     0x00000bc4       0xc8 ./src/main.o
                0x00000bc4                main
 .text.SystemInit
                0x00000c8c       0xe8 C:\Users\Fredc.FCARLIN\Documents\lpcxpresso\workspace\CMSISv2p00_LPC17xx\Debug\libCMSISv2p00_LPC17xx.a(system_LPC17xx.o)
                0x00000c8c                SystemInit
 .text.__libc_init_array
                0x00000d74       0x48 c:/nxp/lpcxpresso_6.1.4_194/lpcxpresso/tools/bin/../lib/gcc/arm-none-eabi/4.6.2/../../../../arm-none-eabi/lib/armv7-m\libc.a(lib_a-init.o)
                0x00000d74                __libc_init_array
 .text          0x00000dbc       0x54 c:/nxp/lpcxpresso_6.1.4_194/lpcxpresso/tools/bin/../lib/gcc/arm-none-eabi/4.6.2/armv7-m\crtbegin.o
 *(.rodata .rodata.* .constdata .constdata.*)
 .rodata.char_gen
                0x00000e10      0x890 ./src/LCD_160x128.o
                0x00000e10                char_gen
 .rodata        0x000016a0       0x24 ./src/main.o
                0x000016c4                . = ALIGN (0x4)
                0x000016c4                . = ALIGN (0x4)
 *(.init)
 .init          0x000016c4        0x4 c:/nxp/lpcxpresso_6.1.4_194/lpcxpresso/tools/bin/../lib/gcc/arm-none-eabi/4.6.2/armv7-m\crti.o
                0x000016c4                _init
 .init          0x000016c8        0x8 c:/nxp/lpcxpresso_6.1.4_194/lpcxpresso/tools/bin/../lib/gcc/arm-none-eabi/4.6.2/armv7-m\crtn.o
                0x000016d0                . = ALIGN (0x4)
                0x000016d0                __preinit_array_start = .
 *(.preinit_array)
                0x000016d0                __preinit_array_end = .
                0x000016d0                . = ALIGN (0x4)
                0x000016d0                __init_array_start = .
 *(SORT(.init_array.*))
 *(.init_array)
 .init_array    0x000016d0        0x4 c:/nxp/lpcxpresso_6.1.4_194/lpcxpresso/tools/bin/../lib/gcc/arm-none-eabi/4.6.2/armv7-m\crtbegin.o
                0x000016d4                __init_array_end = .
 *(.fini)
 .fini          0x000016d4        0x4 c:/nxp/lpcxpresso_6.1.4_194/lpcxpresso/tools/bin/../lib/gcc/arm-none-eabi/4.6.2/armv7-m\crti.o
                0x000016d4                _fini
 .fini          0x000016d8        0x8 c:/nxp/lpcxpresso_6.1.4_194/lpcxpresso/tools/bin/../lib/gcc/arm-none-eabi/4.6.2/armv7-m\crtn.o
                0x000016e0                . = ALIGN (0x4)
 *crtbegin.o(.ctors)
 *(EXCLUDE_FILE(*crtend.o) .ctors)
 *(SORT(.ctors.*))
 *crtend.o(.ctors)
                0x000016e0                . = ALIGN (0x4)
 *crtbegin.o(.dtors)
 *(EXCLUDE_FILE(*crtend.o) .dtors)
 *(SORT(.dtors.*))
 *crtend.o(.dtors)

.glue_7         0x000016e0        0x0
 .glue_7        0x00000000        0x0 linker stubs

.glue_7t        0x000016e0        0x0
 .glue_7t       0x00000000        0x0 linker stubs

.vfp11_veneer   0x000016e0        0x0
 .vfp11_veneer  0x00000000        0x0 linker stubs

.v4_bx          0x000016e0        0x0
 .v4_bx         0x00000000        0x0 linker stubs

.eh_frame       0x000016e0        0x0
 .eh_frame      0x000016e0        0x0 c:/nxp/lpcxpresso_6.1.4_194/lpcxpresso/tools/bin/../lib/gcc/arm-none-eabi/4.6.2/armv7-m\crtbegin.o

.ARM.extab
 *(.ARM.extab* .gnu.linkonce.armextab.*)
                0x000016e0                __exidx_start = .

.ARM.exidx
 *(.ARM.exidx* .gnu.linkonce.armexidx.*)
                0x000016e0                __exidx_end = .
                0x000016e0                _etext = .

.data_RAM2      0x2007c000        0x0 load address 0x000016e0
 FILL mask 0xff
 *(.data.$RAM2*)
 *(.data.$RamAHB32*)
                0x2007c000                . = ALIGN (0x4)

.uninit_RESERVED
                0x10000000        0x0
 *(.bss.$RESERVED*)
                0x10000000                . = ALIGN (0x4)
                0x10000000                _end_uninit_RESERVED = .

.data           0x10000000        0x0 load address 0x000016e0
 FILL mask 0xff
                0x10000000                _data = .
 *(vtable)
 *(.data*)
                0x10000000                . = ALIGN (0x4)
                0x10000000                _edata = .

.jcr            0x10000000        0x0 load address 0x000016e0
 .jcr           0x10000000        0x0 c:/nxp/lpcxpresso_6.1.4_194/lpcxpresso/tools/bin/../lib/gcc/arm-none-eabi/4.6.2/armv7-m\crtbegin.o

.bss_RAM2       0x2007c000        0x0
 *(.bss.$RAM2*)
 *(.bss.$RamAHB32*)
                0x2007c000                . = ALIGN (0x4)

.bss            0x10000000      0x1a4
                0x10000000                _bss = .
 *(.bss*)
 .bss.screen_char
                0x10000000       0xc0 ./src/LCD_160x128.o
                0x10000000                screen_char
 .bss.screen_attr
                0x100000c0       0xc0 ./src/LCD_160x128.o
                0x100000c0                screen_attr
 .bss.disp_address
                0x10000180        0x2 ./src/LCD_160x128.o
                0x10000180                disp_address
 *fill*         0x10000182        0x2 00
 .bss.msTicks   0x10000184        0x4 ./src/PCBA_2100.o
                0x10000184                msTicks
 .bss           0x10000188       0x1c c:/nxp/lpcxpresso_6.1.4_194/lpcxpresso/tools/bin/../lib/gcc/arm-none-eabi/4.6.2/armv7-m\crtbegin.o
 *(COMMON)
                0x100001a4                . = ALIGN (0x4)
                0x100001a4                _ebss = .
                0x100001a4                PROVIDE (end, .)

.noinit_RAM2    0x2007c000        0x0
 *(.noinit.$RAM2*)
 *(.noinit.$RamAHB32*)
                0x2007c000                . = ALIGN (0x4)

.noinit         0x100001a4        0x0
                0x100001a4                _noinit = .
 *(.noinit*)
                0x100001a4                . = ALIGN (0x4)
                0x100001a4                _end_noinit = .
                0x100001a4                PROVIDE (_pvHeapStart, .)
                0x10008000                PROVIDE (_vStackTop, (__top_RamLoc32 - 0x0))
OUTPUT(Chemtrol_2100.axf elf32-littlearm)

.debug_info     0x00000000     0x2140
 .debug_info    0x00000000      0xa42 ./src/LCD_160x128.o
 .debug_info    0x00000a42      0xade ./src/PCBA_2100.o
 .debug_info    0x00001520       0x29 ./src/Uart.o
 .debug_info    0x00001549       0x87 ./src/Utilitas.o
 .debug_info    0x000015d0      0x1ba ./src/cr_cpp_config.o
 .debug_info    0x0000178a      0x28f ./src/cr_startup_lpc175x_6x.o
 .debug_info    0x00001a19       0x48 ./src/crp.o
 .debug_info    0x00001a61      0x350 ./src/main.o
 .debug_info    0x00001db1      0x38f C:\Users\Fredc.FCARLIN\Documents\lpcxpresso\workspace\CMSISv2p00_LPC17xx\Debug\libCMSISv2p00_LPC17xx.a(system_LPC17xx.o)

.debug_abbrev   0x00000000      0x9f5
 .debug_abbrev  0x00000000      0x26a ./src/LCD_160x128.o
 .debug_abbrev  0x0000026a      0x29c ./src/PCBA_2100.o
 .debug_abbrev  0x00000506       0x16 ./src/Uart.o
 .debug_abbrev  0x0000051c       0x76 ./src/Utilitas.o
 .debug_abbrev  0x00000592       0xec ./src/cr_cpp_config.o
 .debug_abbrev  0x0000067e      0x125 ./src/cr_startup_lpc175x_6x.o
 .debug_abbrev  0x000007a3       0x39 ./src/crp.o
 .debug_abbrev  0x000007dc      0x136 ./src/main.o
 .debug_abbrev  0x00000912       0xe3 C:\Users\Fredc.FCARLIN\Documents\lpcxpresso\workspace\CMSISv2p00_LPC17xx\Debug\libCMSISv2p00_LPC17xx.a(system_LPC17xx.o)

.debug_loc      0x00000000      0x964
 .debug_loc     0x00000000      0x41e ./src/LCD_160x128.o
 .debug_loc     0x0000041e      0x270 ./src/PCBA_2100.o
 .debug_loc     0x0000068e       0x38 ./src/Utilitas.o
 .debug_loc     0x000006c6      0x144 ./src/cr_cpp_config.o
 .debug_loc     0x0000080a      0x102 ./src/cr_startup_lpc175x_6x.o
 .debug_loc     0x0000090c       0x38 ./src/main.o
 .debug_loc     0x00000944       0x20 C:\Users\Fredc.FCARLIN\Documents\lpcxpresso\workspace\CMSISv2p00_LPC17xx\Debug\libCMSISv2p00_LPC17xx.a(system_LPC17xx.o)

.debug_aranges  0x00000000      0x258
 .debug_aranges
                0x00000000       0xb0 ./src/LCD_160x128.o
 .debug_aranges
                0x000000b0       0x78 ./src/PCBA_2100.o
 .debug_aranges
                0x00000128       0x20 ./src/Utilitas.o
 .debug_aranges
                0x00000148       0x48 ./src/cr_cpp_config.o
 .debug_aranges
                0x00000190       0x80 ./src/cr_startup_lpc175x_6x.o
 .debug_aranges
                0x00000210       0x20 ./src/main.o
 .debug_aranges
                0x00000230       0x28 C:\Users\Fredc.FCARLIN\Documents\lpcxpresso\workspace\CMSISv2p00_LPC17xx\Debug\libCMSISv2p00_LPC17xx.a(system_LPC17xx.o)

.debug_ranges   0x00000000      0x1e8
 .debug_ranges  0x00000000       0xa0 ./src/LCD_160x128.o
 .debug_ranges  0x000000a0       0x68 ./src/PCBA_2100.o
 .debug_ranges  0x00000108       0x10 ./src/Utilitas.o
 .debug_ranges  0x00000118       0x38 ./src/cr_cpp_config.o
 .debug_ranges  0x00000150       0x70 ./src/cr_startup_lpc175x_6x.o
 .debug_ranges  0x000001c0       0x10 ./src/main.o
 .debug_ranges  0x000001d0       0x18 C:\Users\Fredc.FCARLIN\Documents\lpcxpresso\workspace\CMSISv2p00_LPC17xx\Debug\libCMSISv2p00_LPC17xx.a(system_LPC17xx.o)

.debug_line     0x00000000     0x188c
 .debug_line    0x00000000      0x624 ./src/LCD_160x128.o
 .debug_line    0x00000624      0x449 ./src/PCBA_2100.o
 .debug_line    0x00000a6d       0x30 ./src/Uart.o
 .debug_line    0x00000a9d       0x9a ./src/Utilitas.o
 .debug_line    0x00000b37      0x59f ./src/cr_cpp_config.o
 .debug_line    0x000010d6       0xaf ./src/cr_startup_lpc175x_6x.o
 .debug_line    0x00001185       0xac ./src/crp.o
 .debug_line    0x00001231      0x35b ./src/main.o
 .debug_line    0x0000158c      0x300 C:\Users\Fredc.FCARLIN\Documents\lpcxpresso\workspace\CMSISv2p00_LPC17xx\Debug\libCMSISv2p00_LPC17xx.a(system_LPC17xx.o)

.debug_macinfo  0x00000000    0x2a485
 .debug_macinfo
                0x00000000     0x762f ./src/LCD_160x128.o
 .debug_macinfo
                0x0000762f     0x7430 ./src/PCBA_2100.o
 .debug_macinfo
                0x0000ea5f     0x2324 ./src/Uart.o
 .debug_macinfo
                0x00010d83     0x2337 ./src/Utilitas.o
 .debug_macinfo
                0x000130ba     0x42f2 ./src/cr_cpp_config.o
 .debug_macinfo
                0x000173ac     0x2385 ./src/cr_startup_lpc175x_6x.o
 .debug_macinfo
                0x00019731     0x23b8 ./src/crp.o
 .debug_macinfo
                0x0001bae9     0x7586 ./src/main.o
 .debug_macinfo
                0x0002306f     0x7416 C:\Users\Fredc.FCARLIN\Documents\lpcxpresso\workspace\CMSISv2p00_LPC17xx\Debug\libCMSISv2p00_LPC17xx.a(system_LPC17xx.o)

.debug_str      0x00000000     0x10e6
 .debug_str     0x00000000      0x5b7 ./src/LCD_160x128.o
                                0x60d (size before relaxing)
 .debug_str     0x000005b7      0x642 ./src/PCBA_2100.o
                                0x7ba (size before relaxing)
 .debug_str     0x00000bf9       0x10 ./src/Uart.o
                                 0xa5 (size before relaxing)
 .debug_str     0x00000c09       0x31 ./src/Utilitas.o
                                 0xd0 (size before relaxing)
 .debug_str     0x00000c3a       0xf9 ./src/cr_cpp_config.o
                                0x21c (size before relaxing)
 .debug_str     0x00000d33      0x18a ./src/cr_startup_lpc175x_6x.o
                                0x242 (size before relaxing)
 .debug_str     0x00000ebd       0x5f ./src/crp.o
                                 0xb6 (size before relaxing)
 .debug_str     0x00000f1c       0x1a ./src/main.o
                                0x43e (size before relaxing)
 .debug_str     0x00000f36      0x1b0 C:\Users\Fredc.FCARLIN\Documents\lpcxpresso\workspace\CMSISv2p00_LPC17xx\Debug\libCMSISv2p00_LPC17xx.a(system_LPC17xx.o)
                                0x2cd (size before relaxing)

.comment        0x00000000       0x70
 .comment       0x00000000       0x70 ./src/LCD_160x128.o
                                 0x71 (size before relaxing)
 .comment       0x00000000       0x71 ./src/PCBA_2100.o
 .comment       0x00000000       0x71 ./src/Uart.o
 .comment       0x00000000       0x71 ./src/Utilitas.o
 .comment       0x00000000       0x71 ./src/cr_cpp_config.o
 .comment       0x00000000       0x71 ./src/cr_startup_lpc175x_6x.o
 .comment       0x00000000       0x71 ./src/crp.o
 .comment       0x00000000       0x71 ./src/main.o
 .comment       0x00000000       0x71 C:\Users\Fredc.FCARLIN\Documents\lpcxpresso\workspace\CMSISv2p00_LPC17xx\Debug\libCMSISv2p00_LPC17xx.a(system_LPC17xx.o)

.ARM.attributes
                0x00000000       0x33
 .ARM.attributes
                0x00000000       0x33 ./src/LCD_160x128.o
 .ARM.attributes
                0x00000033       0x33 ./src/PCBA_2100.o
 .ARM.attributes
                0x00000066       0x33 ./src/Uart.o
 .ARM.attributes
                0x00000099       0x33 ./src/Utilitas.o
 .ARM.attributes
                0x000000cc       0x33 ./src/cr_cpp_config.o
 .ARM.attributes
                0x000000ff       0x33 ./src/cr_startup_lpc175x_6x.o
 .ARM.attributes
                0x00000132       0x33 ./src/crp.o
 .ARM.attributes
                0x00000165       0x33 ./src/main.o
 .ARM.attributes
                0x00000198       0x33 C:\Users\Fredc.FCARLIN\Documents\lpcxpresso\workspace\CMSISv2p00_LPC17xx\Debug\libCMSISv2p00_LPC17xx.a(system_LPC17xx.o)
 .ARM.attributes
                0x000001cb       0x1d c:/nxp/lpcxpresso_6.1.4_194/lpcxpresso/tools/bin/../lib/gcc/arm-none-eabi/4.6.2/armv7-m\libgcc.a(_aeabi_uldivmod.o)
 .ARM.attributes
                0x000001e8       0x2d c:/nxp/lpcxpresso_6.1.4_194/lpcxpresso/tools/bin/../lib/gcc/arm-none-eabi/4.6.2/armv7-m\libgcc.a(bpabi.o)
 .ARM.attributes
                0x00000215       0x1d c:/nxp/lpcxpresso_6.1.4_194/lpcxpresso/tools/bin/../lib/gcc/arm-none-eabi/4.6.2/armv7-m\libgcc.a(_dvmd_tls.o)
 .ARM.attributes
                0x00000232       0x2d c:/nxp/lpcxpresso_6.1.4_194/lpcxpresso/tools/bin/../lib/gcc/arm-none-eabi/4.6.2/armv7-m\libgcc.a(_divdi3.o)
 .ARM.attributes
                0x0000025f       0x2d c:/nxp/lpcxpresso_6.1.4_194/lpcxpresso/tools/bin/../lib/gcc/arm-none-eabi/4.6.2/armv7-m\libgcc.a(_udivdi3.o)
 .ARM.attributes
                0x0000028c       0x2d c:/nxp/lpcxpresso_6.1.4_194/lpcxpresso/tools/bin/../lib/gcc/arm-none-eabi/4.6.2/../../../../arm-none-eabi/lib/armv7-m\libc.a(lib_a-init.o)
 .ARM.attributes
                0x000002b9       0x2d c:/nxp/lpcxpresso_6.1.4_194/lpcxpresso/tools/bin/../lib/gcc/arm-none-eabi/4.6.2/../../../../arm-none-eabi/lib/armv7-m\libc.a(lib_a-malloc.o)
 .ARM.attributes
                0x000002e6       0x2d c:/nxp/lpcxpresso_6.1.4_194/lpcxpresso/tools/bin/../lib/gcc/arm-none-eabi/4.6.2/../../../../arm-none-eabi/lib/armv7-m\libc.a(lib_a-mallocr.o)
 .ARM.attributes
                0x00000313       0x2d c:/nxp/lpcxpresso_6.1.4_194/lpcxpresso/tools/bin/../lib/gcc/arm-none-eabi/4.6.2/../../../../arm-none-eabi/lib/armv7-m\libc.a(lib_a-mlock.o)
 .ARM.attributes
                0x00000340       0x2d c:/nxp/lpcxpresso_6.1.4_194/lpcxpresso/tools/bin/../lib/gcc/arm-none-eabi/4.6.2/../../../../arm-none-eabi/lib/armv7-m\libc.a(lib_a-sbrkr.o)
 .ARM.attributes
                0x0000036d       0x2d c:/nxp/lpcxpresso_6.1.4_194/lpcxpresso/tools/bin/../lib/gcc/arm-none-eabi/4.6.2/../../../../arm-none-eabi/lib/armv7-m\libc.a(lib_a-freer.o)
 .ARM.attributes
                0x0000039a       0x2d c:/nxp/lpcxpresso_6.1.4_194/lpcxpresso/tools/bin/../lib/gcc/arm-none-eabi/4.6.2/../../../../arm-none-eabi/lib/armv7-m\libc.a(lib_a-impure.o)
 .ARM.attributes
                0x000003c7       0x2d c:/nxp/lpcxpresso_6.1.4_194/lpcxpresso/tools/bin/../lib/gcc/arm-none-eabi/4.6.2/../../../../arm-none-eabi/lib/armv7-m\libc.a(lib_a-reent.o)
 .ARM.attributes
                0x000003f4       0x1d c:/nxp/lpcxpresso_6.1.4_194/lpcxpresso/tools/bin/../lib/gcc/arm-none-eabi/4.6.2/armv7-m\crti.o
 .ARM.attributes
                0x00000411       0x1d c:/nxp/lpcxpresso_6.1.4_194/lpcxpresso/tools/bin/../lib/gcc/arm-none-eabi/4.6.2/armv7-m\crtn.o
 .ARM.attributes
                0x0000042e       0x2d c:/nxp/lpcxpresso_6.1.4_194/lpcxpresso/tools/bin/../lib/gcc/arm-none-eabi/4.6.2/armv7-m\crtbegin.o
 .ARM.attributes
                0x0000045b       0x2d c:/nxp/lpcxpresso_6.1.4_194/lpcxpresso/tools/bin/../lib/gcc/arm-none-eabi/4.6.2/armv7-m\crtend.o

.debug_frame    0x00000000      0x860
 .debug_frame   0x00000000      0x248 ./src/LCD_160x128.o
 .debug_frame   0x00000248      0x168 ./src/PCBA_2100.o
 .debug_frame   0x000003b0       0x2c ./src/Utilitas.o
 .debug_frame   0x000003dc       0xc4 ./src/cr_cpp_config.o
 .debug_frame   0x000004a0       0xf4 ./src/cr_startup_lpc175x_6x.o
 .debug_frame   0x00000594       0x30 ./src/main.o
 .debug_frame   0x000005c4       0x3c C:\Users\Fredc.FCARLIN\Documents\lpcxpresso\workspace\CMSISv2p00_LPC17xx\Debug\libCMSISv2p00_LPC17xx.a(system_LPC17xx.o)
 .debug_frame   0x00000600       0x50 c:/nxp/lpcxpresso_6.1.4_194/lpcxpresso/tools/bin/../lib/gcc/arm-none-eabi/4.6.2/armv7-m\libgcc.a(bpabi.o)
 .debug_frame   0x00000650       0x34 c:/nxp/lpcxpresso_6.1.4_194/lpcxpresso/tools/bin/../lib/gcc/arm-none-eabi/4.6.2/armv7-m\libgcc.a(_divdi3.o)
 .debug_frame   0x00000684       0x34 c:/nxp/lpcxpresso_6.1.4_194/lpcxpresso/tools/bin/../lib/gcc/arm-none-eabi/4.6.2/armv7-m\libgcc.a(_udivdi3.o)
 .debug_frame   0x000006b8       0x2c c:/nxp/lpcxpresso_6.1.4_194/lpcxpresso/tools/bin/../lib/gcc/arm-none-eabi/4.6.2/../../../../arm-none-eabi/lib/armv7-m\libc.a(lib_a-init.o)
 .debug_frame   0x000006e4       0x30 c:/nxp/lpcxpresso_6.1.4_194/lpcxpresso/tools/bin/../lib/gcc/arm-none-eabi/4.6.2/../../../../arm-none-eabi/lib/armv7-m\libc.a(lib_a-malloc.o)
 .debug_frame   0x00000714       0x38 c:/nxp/lpcxpresso_6.1.4_194/lpcxpresso/tools/bin/../lib/gcc/arm-none-eabi/4.6.2/../../../../arm-none-eabi/lib/armv7-m\libc.a(lib_a-mallocr.o)
 .debug_frame   0x0000074c       0x30 c:/nxp/lpcxpresso_6.1.4_194/lpcxpresso/tools/bin/../lib/gcc/arm-none-eabi/4.6.2/../../../../arm-none-eabi/lib/armv7-m\libc.a(lib_a-mlock.o)
 .debug_frame   0x0000077c       0x2c c:/nxp/lpcxpresso_6.1.4_194/lpcxpresso/tools/bin/../lib/gcc/arm-none-eabi/4.6.2/../../../../arm-none-eabi/lib/armv7-m\libc.a(lib_a-sbrkr.o)
 .debug_frame   0x000007a8       0x50 c:/nxp/lpcxpresso_6.1.4_194/lpcxpresso/tools/bin/../lib/gcc/arm-none-eabi/4.6.2/../../../../arm-none-eabi/lib/armv7-m\libc.a(lib_a-freer.o)
 .debug_frame   0x000007f8       0x68 c:/nxp/lpcxpresso_6.1.4_194/lpcxpresso/tools/bin/../lib/gcc/arm-none-eabi/4.6.2/../../../../arm-none-eabi/lib/armv7-m\libc.a(lib_a-reent.o)
